S02B0000433A5C55736572735C486965705C446F63756D656E74735C4D43555870726573736F4944455F313131
S113780400180020D978000047790000FD800000AA
S11378140000000000000000000000000000000060
S11378240000000000000000000000004B7900008C
S113783400000000000000004D7900004F790000B2
S1137844537900005B790000637900006B790000D0
S1137854737900007B790000837900008B79000040
S1137864937900009B790000A3790000AB790000B0
S1137874A97E0000BB790000C3790000CB79000025
S1137884D3790000DB790000E3790000EB79000090
S1137894F3790000FB790000037A00000B7A0000FE
S11378A4137A00001B7A0000237A00002B7A00006C
S11378B4337A00003B7A0000437A00004B7A0000DC
S11378C4C4BE000080F8FF1F0400000084F8FF1FFA
S11378D47001000072B601F0C7FA0E4B07E0186895
S11378E459681C000C349A6800F01AF823000A4AF8
S11378F49342F4D306E018681C000834596800F075
S113790418F82300054A9342F5D362B603F0A3FEA4
S1137914FEE7C046C4780000D0780000D8780000A0
S113792410B5002302E010C810C104339342FAD303
S113793410BD002302E0002204C004338B42FAD3B6
S11379447047FEE7FEE7FEE7FEE7FEE7FEE710B555
S1137954FFF7FCFF10BD10B5FFF7F8FF10BD10B51D
S1137964FFF7F4FF10BD10B5FFF7F0FF10BD10B51D
S1137974FFF7ECFF10BD10B5FFF7E8FF10BD10B51D
S1137984FFF7E4FF10BD10B5FFF7E0FF10BD10B51D
S113799401F0F2F910BD10B5FFF7D8FF10BD10B512
S11379A4FFF7D4FF10BD10B5FFF7D0FF10BD10B51D
S11379B401F024FA10BD10B501F032FA10BD10B56F
S11379C401F040FA10BD10B5FFF7C0FF10BD10B5AB
S11379D4FFF7BCFF10BD10B5FFF7B8FF10BD10B51D
S11379E4FFF7B4FF10BD10B5FFF7B0FF10BD10B51D
S11379F4FFF7ACFF10BD10B5FFF7A8FF10BD10B51D
S1137A04FFF7A4FF10BD10B5FFF7A0FF10BD10B51C
S1137A14FFF79CFF10BD10B5FFF798FF10BD10B51C
S1137A24FFF794FF10BD10B5FFF790FF10BD10B51C
S1137A34FFF78CFF10BD10B5FFF788FF10BD10B51C
S1137A44FFF784FF10BD10B5FFF780FF10BDFFFFE3
S1137A54FFFFFFFFFFFFFFFFFFFFFFFFFFFFFFFF2E
S1137A64FFFFFFFFFFFFFFFFFFFFFFFFFFFFFFFF1E
S1137A74FFFFFFFFFFFFFFFFFFFFFFFFFFFFFFFF0E
S1137A84FFFFFFFFFFFFFFFFFFFFFFFFFFFFFFFFFE
S1137A94FFFFFFFFFFFFFFFFFFFFFFFFFFFFFFFFEE
S1137AA4FFFFFFFFFFFFFFFFFFFFFFFFFFFFFFFFDE
S1137AB4FFFFFFFFFFFFFFFFFFFFFFFFFFFFFFFFCE
S1137AC4FFFFFFFFFFFFFFFFFFFFFFFFFFFFFFFFBE
S1137AD4FFFFFFFFFFFFFFFFFFFFFFFFFFFFFFFFAE
S1137AE4FFFFFFFFFFFFFFFFFFFFFFFFFFFFFFFF9E
S1137AF4FFFFFFFFFFFFFFFFFFFFFFFFFFFFFFFF8E
S1137B04FFFFFFFFFFFFFFFFFFFFFFFFFFFFFFFF7D
S1137B14FFFFFFFFFFFFFFFFFFFFFFFFFFFFFFFF6D
S1137B24FFFFFFFFFFFFFFFFFFFFFFFFFFFFFFFF5D
S1137B34FFFFFFFFFFFFFFFFFFFFFFFFFFFFFFFF4D
S1137B44FFFFFFFFFFFFFFFFFFFFFFFFFFFFFFFF3D
S1137B54FFFFFFFFFFFFFFFFFFFFFFFFFFFFFFFF2D
S1137B64FFFFFFFFFFFFFFFFFFFFFFFFFFFFFFFF1D
S1137B74FFFFFFFFFFFFFFFFFFFFFFFFFFFFFFFF0D
S1137B84FFFFFFFFFFFFFFFFFFFFFFFFFFFFFFFFFD
S1137B94FFFFFFFFFFFFFFFFFFFFFFFFFFFFFFFFED
S1137BA4FFFFFFFFFFFFFFFFFFFFFFFFFFFFFFFFDD
S1137BB4FFFFFFFFFFFFFFFFFFFFFFFFFFFFFFFFCD
S1137BC4FFFFFFFFFFFFFFFFFFFFFFFFFFFFFFFFBD
S1137BD4FFFFFFFFFFFFFFFFFFFFFFFFFFFFFFFFAD
S1137BE4FFFFFFFFFFFFFFFFFFFFFFFFFFFFFFFF9D
S1137BF4FFFFFFFFFFFFFFFFFFFFFFFFFFFFFFFF8D
S1137C04FFFFFFFFFFFFFFFFFFFFFFFFFEFFFFFF7D
S1137C1480B584B000AF78600023FB6001235B422D
S1137C24BB607A68064B1100180002F058FEBA686B
S1137C34F9687B68180002F011FE00BEFDE7C04637
S1137C4460B80000B0B584B000AF786039607B6878
S1137C54002BFCD03B68002B01D1002317E00E4B12
S1137C641B68002B01D1002311E00E257C193A680E
S1137C7479680A4B180003F0BAFC030023807B19CB
S1137C841B88002B01D13B6801E001235B421800EF
S1137C94BD4604B0B0BDC046A4F8FF1F9CF8FF1F46
S1137CA4F0B5A5B000AF78603960002388243A1990
S1137CB4136000238C26BA19136008257B19180055
S1137CC480231A00002103F0D0FC0F4B1B68002B07
S1137CD412D00E4B7A193968786803F045F803001A
S1137CE43A1913603B191A687B1911001800FFF73D
S1137CF4A9FF0300BA1913608C23FB181B6818002E
S1137D04BD4625B0F0BDC046A4F8FF1F77A8000007
S1137D1480B582B000AF0200FB1D1A70FB1D1B78F6
S1137D247F2B09D8FB1D1B781A001F231A40044B10
S1137D34012191400A001A60C046BD4602B080BDCC
S1137D4400E100E090B585B000AF0F243B190F2289
S1137D541A700023BB60BB1D00221A80052000F0AA
S1137D647DFB0300BB60BB6896229101180003F0FD
S1137D74CCFC03001A003B191B78013319001000D2
S1137D8403F0C3FC03001A00BB1D1A801349D42357
S1137D945B008622D205CA50104994235B008022DA
S1137DA4D205CA500E4B802292001A600C4B8022DA
S1137DB492005A603B191B781A06BB1D1B881A4390
S1137DC4084B1A61074BB02292039A610C2003F00A
S1137DD436F9C046BD4605B090BDC04600500640C5
S1137DE400A0044000A0064080B500AF134A9423C9
S1137DF45B00D35811498022D2051A4394235B00B3
S1137E04CA500F4B1A690E4B802149000A431A6168
S1137E140C4B5A690B4B10210A435A61094B1A68DB
S1137E24084B10210A431A60064B5A68054B10216B
S1137E340A435A60C046BD4680BDC0460050064051
S1137E4400A0044040F00F4080B582B000AF7860D9
S1137E541AE0C046124B5A6980231B04134005D10F
S1137E640F4B5A6980235B041340F3D07B681A7860
S1137E740B4BDA617B6801337B60C046084B5A695B
S1137E848023DB031340F9D07B681A7800231B7822
S1137E949A42DED1C046C046BD4602B080BDC0464B
S1137EA400A0064080B582B000AFFB1D00221A700A
S1137EB4174B5A6980239B03134025D0144BDA696A
S1137EC4FB1D1A70FB1D1B780D2B0CD1114B1B7859
S1137ED41A00114B00219954104B01221A700D4BB6
S1137EE400221A7010E0FB1D1B780A2B0CD0094BDE
S1137EF41B781900084BFA1D12785A54054B1B7849
S1137F040133DAB2034B1A70C046BD4602B080BDD9
S1137F1400A00640F1F9FF1FA8F8FF1FF0F9FF1FA6
S1137F24B0B5C6B002AF8023FB18180080231A0032
S1137F34002103F09AFB002386225200BA1813602E
S1137F440023842464003A19136000237A1DFF3249
S1137F5413603B1DFF3300221A7003F075FBFFF717
S1137F64F1FEFFF741FFB8235B001900012003F081
S1137F7496FB03003A1913603B191B68002B02D1CA
S1137F8401235B42A3E06421012003F088FB030086
S1137F947A1DFF3213607B1DFF331B68002B02D153
S1137FA401235B4293E084235B00FB181B681800E5
S1137FB403F060F8484B1800FFF746FF474B1B7863
S1137FC4002B18D0464A84235B00FB181B6811005D
S1137FD4180003F064F8031E03D1424B1800FFF7A2
S1137FE433FF3F4B5B220021180003F03EFB3B4B65
S1137FF400221A70E2E7394B1B7801225340DBB2AA
S1138004002BDBD0842464003B191A68B6235B007C
S1138014D358002BD2DB344B882252009B18DB1933
S1138024180080231A00002103F01FFB3A003B19B7
S11380341B681100180003F082F8031E42D0862541
S11380446D007B191B6801337A1913603C1DFF34DE
S11380543A007B1DFF331B681100180000F008F977
S11380640300237080243B1980220021180003F0AC
S1138074FCFA3B1DFF331B78002B0BD17B191A68C8
S11380841A493B19180001F0AFFF3B191800FFF718
S1138094DBFE93E73B1DFF331B78180000F072F8F6
S11380A4040086235B00FB181A681149802578199B
S11380B43B000093230001F097FF7B191800FFF79E
S11380C4C3FE7BE70B4B1800FFF7BEFE76E71800F0
S11380D4BD4644B0B0BDC04674B80000F0F9FF1FFB
S11380E4A8F8FF1F84B80000F0FEFFFFA4B8000046
S11380F4ACB80000D0B8000004207146084202D095
S1138104EFF3098001E0EFF3088081690A88074BE3
S11381149A4200D0FEE7023181610168012901D04D
S1138124002100E0202101607047C046ABBE00007E
S113813480B582B000AF0200FB1D1A70FB1D1B78D2
S1138144092B18D89A000E4BD3181B689F4600239A
S113815412E0012310E002230EE003230CE00423C5
S11381640AE0052308E0062306E0072304E00823C5
S113817402E0092300E00A231800BD4602B080BDD2
S113818428BC000080B582B000AF0200FB1D1A7049
S1138194FB1D1B78052B10D89A000A4BD3181B68B7
S11381A49F46094B0AE0094B08E0094B06E0094BDA
S11381B404E0094B02E0094B00E0094B1800BD46FA
S11381C402B080BD50BC0000F0B80000F4B8000058
S11381D408B9000018B900002CB9000040B9000027
S11381E454B9000080B584B000AF78600F23FB1845
S11381F400221A700123BB6028E0BB687A68D31894
S11382041B782F2B05D9BB687A68D3181B78392BB4
S113821419D9BB687A68D3181B78402B05D9BB6875
S11382247A68D3181B78462B0DD9BB687A68D3189F
S11382341B781A00B9680D4B180001F041FF0F2395
S1138244FB1805221A70BB680133BB607B681800F5
S113825402F048F80200BB689A42CED80F23FB18F8
S11382641B781800BD4604B080BDC0465CB900004C
S1138274B0B584B000AF786039600B257B19002257
S11382841A707C193A687B681100180002F0EBFF3D
S1138294030023707B191B78002B0FD17C193A68D7
S11382A47B681100180002F0F5FF030023707B19AA
S11382B41B78002B06D07B191B788BE00B23FB184F
S11382C41B7887E00B257C193B681800FFF78AFFAD
S11382D4030023707B191B78002B02D07B191B78B5
S11382E478E00B257C193A687B681100180002F0C9
S11382F4F6FF030023707B191B78002B02D07B1933
S11383041B7867E00B257C193B68180003F019F807
S1138314030023707B191B78002B02D07B191B7874
S113832458E07B681B78012B0BD07B681B78022BED
S113833407D07B681B78032B03D00B23FB181B7813
S113834448E03A687B681100180003F05DF87B6824
S11383541B78012B07D07B681B78022B01D11823CF
S113836402E0202300E010237A6852681B481900B5
S113837401F0A6FE3A687B681100180003F07CF84B
S1138384174B180001F09CFE0023FB6012E07A688E
S1138394FB68D31808331B781900FB6801337A6827
S11383A4D3181B7A1A000F4B180001F089FEFB68DE
S11383B40233FB607B680833180001F093FF02006A
S11383C4FB689A42E3D8084B180001F079FE0B23AA
S11383D4FB181B781800BD4604B0B0BD8CB900006E
S11383E4B8B90000C8B90000D0B9000080B584B0A1
S11383F400AF78607B68002B03D1074B1800FFF7AC
S113840407FC7B68FB60054AFB6812691A60C04676
S1138414BD4604B080BDC046D4B900000040064047
S113842480B500AF0A4A80235B00D358012213406D
S11384340AD0084B1B68002B03D1074B1800FFF725
S1138444E7FB044B1B6800E000231800BD4680BD15
S11384540040064004F9FF1FF0B9000080B584B061
S113846400AF0200FB1D1A70FB1D1B780C2B45D8B2
S11384749A00264BD3181B689F46012003F03AF850
S11384840300FB603DE0002003F034F80300FB60CC
S113849437E000F003F90300FB6032E000F0BCF9BC
S11384A40300FB602DE000F0BDFA0300FB6028E04C
S11384B400F0D4FB0300FB6023E0002000F012F979
S11384C40300FB601DE0002000F0C8F90300FB601A
S11384D417E0002000F0C8FA0300FB6011E000205C
S11384E400F0DEFB0300FB600BE0FA235B02FB609D
S11384F407E0FFF795FF0300FB6002E00023FB6045
S1138504C046FB681800BD4604B080BD68BC0000CA
S113851480B586B000AF78607B68002B03D1434BF1
S11385241800FFF775FB17217B1800221A707B686B
S11385349B7A002B2ED07B681A6880231B029A42F4
S113854408D37B681B683A4A934203D87B180122F8
S11385541A701FE07B681B68364A934209D97B680A
S11385641B68354A934204D81723FB1802221A7055
S113857410E07B681B68314A934209D97B681B6805
S11385842F4A934204D81723FB1803221A7001E0DC
S1138594042347E000F058F803003B613B69002BD7
S11385A401D03B693EE07B685B7A1A022549E023EB
S11385B4DB001A4082235B00CA507B689B7A180054
S11385C41723FB181B781B01302213401D4902009A
S11385D41A4384235B00CA500F203B187A68127A2A
S11385E41A703B183A18127801210A431A70154973
S11385F43B181A7880235B00CA50C046114A802372
S11386045B00D25880235B041340F7D00D4A8023C7
S11386145B00D2587B685B680A491A4380235B0079
S1138624CA5000231800BD4606B080BD10BA00002D
S1138634409C00003F420F0000127A00FF117A00B0
S11386440048E8010040064080B582B000AF114AFA
S113865480235B00D3583B603A6880239B04134017
S113866402D00D4B7B600FE03A6880231B04134057
S113867402D002237B6007E0064980235B0080224A
S1138684D204CA5000237B607B681800BD4602B044
S113869480BDC046004006403508000080B582B065
S11386A400AF0D4A80235B00D25880235B0413403F
S11386B40BD00A4B1B68002B03D1094B1800FFF79E
S11386C4A7FA064B1B687B6001E000237B607B6890
S11386D41800BD4602B080BD0040064004F9FF1FE7
S11386E42CBA000080B586B000AF0200FB1D1A70DE
S11386F4FFF7D4FF0300FB6000237B61FB68002BBE
S11387040FD0FB1D1B78002B08D10E4A82235B007B
S1138714D3581B0A072213407B6102E000237B61C8
S1138724C0467B69002B06D07B69013BFA68DA40BA
S113873413003B6101E000233B613B691800BD4623
S113874406B080BD0040064080B584B000AF7860B8
S11387547B68002B03D11A4B1800FFF759FA00F079
S113876433F80300FB60FB68002B23D17B681B797F
S11387741A021449E023DB001A4081239B00CA50E7
S11387847B685B791A000F4901231A4082239B00FA
S1138794CA507B681B680B4901221A4380239B003F
S11387A4CA50C046074A80239B00D25880235B04E6
S11387B41340F7D0FB681800BD4604B080BDC04622
S11387C44CBA00000040064080B582B000AF104AA5
S11387D480239B00D3583B603A6880239B04134056
S11387E402D00C4B7B600EE03A6880231B041340D8
S11387F402D002237B6006E0054A80239B0000210B
S1138804D15000237B607B681800BD4602B080BD54
S1138814004006403508000080B582B000AF0D4A20
S113882480239B00D25880235B0413400AD0094A56
S113883482239B00D35801221A40074B9200D35839
S11388447B6001E000237B607B681800BD4602B0B6
S113885480BDC046004006409CBC000080B586B084
S113886400AF0200FB1D1A70FFF7D6FF0300FB6084
S113887400237B61FB68002B0FD0FB1D1B78002BAE
S113888408D10E4A81239B00D3581B0A07221340A4
S11388947B6102E000237B61C0467B69002B06D028
S11388A47B69013BFA68DA4013003B6101E0002371
S11388B43B613B691800BD4606B080BD00400640DC
S11388C480B584B000AF78607B68002B03D13E4B45
S11388D41800FFF79DF900F07BF80300FB60FB68C8
S11388E4002B01D0FB686AE07B681B791A023749C4
S11388F4E023DB001A40C1239B00CA507B685B79E8
S11389041A00324903231A40C2239B00CA507B68CD
S11389149B68002B3CD07B689B68DB781A02E023BD
S1138924DB001A407B689B689B78190003230B4087
S113893426491A43C3239B00CA507B689B681A8840
S113894480235B009A4211D17B689B681B791A02CD
S1138954FC239B011A407B689B685B7919007F2385
S11389640B401A491A43C6239B00CA507B689B6870
S11389741B88164A1900C0239B00D150134AC023F4
S11389849B00D2588023DB04134001D0012316E05A
S11389940E4AC0239B00D2587B681B6813430B49BF
S11389A401221A43C0239B00CA50C046074AC0236D
S11389B49B00D25880235B041340F7D00023180093
S11389C4BD4604B080BDC04668BA000000400640FD
S11389D480B582B000AF114AC0239B00D3583B60DA
S11389E400237B603A6880239B04134002D00C4B21
S11389F47B600DE03A6880231B04134002D00223F9
S1138A047B6005E00549C0239B008022D204CA5040
S1138A147B681800BD4602B080BDC04600400640D5
S1138A243508000080B582B000AF0D4AC0239B0016
S1138A34D25880235B0413400AD0094AC2239B0002
S1138A44D35803221A40074B9200D3587B6001E0A9
S1138A5400237B607B681800BD4602B080BDC0461D
S1138A6400400640A4BC000080B586B000AF0200FC
S1138A74FB1D1A70FFF7D6FF0300FB6000237B6124
S1138A84FB68002B0FD0FB1D1B78002B08D10E4A6A
S1138A94C1239B00D3581B0A072213407B6102E0C5
S1138AA400237B61C0467B69002B06D07B69013BB4
S1138AB4FA68DA4013003B6101E000233B613B693F
S1138AC41800BD4606B080BD0040064080B584B0A1
S1138AD400AF78607B68002B03D1464B1800FFF786
S1138AE497F800F091F80300FB60FB68002B01D0B9
S1138AF4FB687AE07B685B781A023F49E023DB0079
S1138B0413403E4A8B507B689B781A003A490323EE
S1138B141A40A123DB00CA507B685B68002B38D061
S1138B247B685B681B791A02F8235B011A407B6833
S1138B345B68DB78190003230B401A437B685B688A
S1138B449B78190480235B020B402B4913432C4A62
S1138B548B507B685B681A8880235B009A4206D139
S1138B647B685B685B79244A1900264BD1507B6887
S1138B745B681B88204A1900A023DB00D1501E4ADD
S1138B84A023DB00D2588023DB04134001D001234B
S1138B942BE0194AA023DB00D3587A681278012108
S1138BA40A43D2B214491A43A023DB00CA50C04674
S1138BB4114AA023DB00D25880235B041340F7D06E
S1138BC47B685B68002B0FD07B685B681A88C023C2
S1138BD49B009A4208D1C046074AA023DB00D2581E
S1138BE48023DB001340F7D000231800BD4604B0F3
S1138BF480BDC04684BA000000400640040500005D
S1138C040C0500001405000080B582B000AF114AC1
S1138C14A023DB00D3583B603A6880239B041340B1
S1138C2402D00D4B7B600FE03A6880231B04134091
S1138C3402D002237B6007E00649A023DB008022E4
S1138C44D204CA5000237B607B681800BD4602B07E
S1138C5480BDC046004006403508000080B582B09F
S1138C6400AF0D4AA023DB00D25880235B041340D9
S1138C740AD0094AA123DB00D35803221A40074B24
S1138C849200D3587B6001E000237B607B6818006A
S1138C94BD4602B080BDC04600400640A8BC0000EA
S1138CA480B586B000AF0200FB1D1A70FFF7D6FF33
S1138CB40300FB6000237B61FB68002B0ED0FB1DCB
S1138CC41B78002B07D10E4A0E4BD3581B0A0722DC
S1138CD413407B6102E000237B61C0467B69002B67
S1138CE406D07B69013BFA68DA4013003B6101E07A
S1138CF400233B613B691800BD4606B080BDC046F5
S1138D04004006400405000080B582B000AF7860DE
S1138D1439607B681B69012213400CD0124B1B6819
S1138D24002B08D0104B1B68104A396889008958F5
S1138D347A68100098477A6888235B00D358012224
S1138D4413400CD00A4B1B68002B08D0084B1B683B
S1138D54084A3968890089587A6810009847C046D7
S1138D64BD4602B080BDC04608F9FF1F0CF9FF1FC1
S1138D7410F9FF1F14F9FF1F80B500AF034B002146
S1138D841800FFF7C1FFC046BD4680BD0060064021
S1138D9480B586B000AFF860B9607A60BB68002B18
S1138DA403D1154B1800FEF733FFBB687B617B6866
S1138DB43B6111E0C046FB685A6980231B041340DD
S1138DC4F9D07B691B781A00FB68DA617B6901338B
S1138DD47B613B69013B3B613B69002BEAD1C046A3
S1138DE4FB685A698023DB031340F9D0002318007D
S1138DF4BD4606B080BDC046A0BA000080B500AF31
S1138E04044B1A68044B1B68044819009047C04675
S1138E14BD4680BD24F9FF1F18F9FF1F00A00640BA
S1138E2480B500AF044B5A68044B5B6804481900CE
S1138E349047C046BD4680BD24F9FF1F18F9FF1FA3
S1138E4400B0064080B500AF044B9A68044B9B689D
S1138E54044819009047C046BD4680BD24F9FF1F4D
S1138E6418F9FF1F00C0064080B500AF104B1A6804
S1138E7480239B01134003D00D4B0E4A5A6005E036
S1138E840B4B0D4A5A600A4B0C4A5A60084B0C4A65
S1138E949A60074B1B68A02293431A00044B2021B9
S1138EA40A431A6002F07CFBC046BD4680BDC0463E
S1138EB40020054020C528D920C5000028D9000079
S1138EC4FFFF000080B586B000AFF860B9607A6037
S1138ED4FB68002B03D1124B1800FEF799FEBB6804
S1138EE4002B03D10F4B1800FEF792FE7B68002B76
S1138EF403D10D4B1800FEF78BFEFB687B617B6985
S1138F041B781A00094B9200D3587A68B968180080
S1138F14FFF73EFF00231800BD4606B080BDC046DF
S1138F24C4BA0000F0BA000018BB0000ACBC0000D6
S1138F3490B587B000AFF860B9607A603B601621E1
S1138F447B180B4A1A80FB681B78012B09D1FB6838
S1138F540C337C183A687968180002F059FB030052
S1138F6423801623FB181B881800BD4607B090BD48
S1138F742135000080B584B000AF78607B68002B95
S1138F8403D1074B1800FEF743FE7B68FB60FB68C4
S1138F94044A1B685361C046BD4604B080BDC04644
S1138FA440BB00000040064080B584B000AF786048
S1138FB47B68002B03D1074B1800FEF729FE7B685E
S1138FC4FB60054AFB6812691A60C046BD4604B0DA
S1138FD480BDC046B4BB00000040064080B582B0EA
S1138FE400AF7860034B7A681A60C046BD4602B08D
S1138FF480BDC04604F9FF1FB0B586B000AF7860E9
S11390040C243B192D4A03CA03C30023BB6008255F
S11390147B191A780F218A43111C03220A431A70FC
S11390240B23FB181A780F218A43111C02220A43CA
S11390341A703B191800FFF787FB7B191800FFF718
S113904499FF1423FB181800FFF7AEFF1723FB182E
S11390541B781B071B0FDAB20B243B191B781B0765
S11390641B0FDBB29A42ECD17B681800FFF728FC93
S11390743B191A780F218A43111C03220A431A70DC
S11390840823FB181800FFF775FF1423FB181800B6
S1139094FFF78AFF1723FB181B781B071B0FDAB291
S11390A40B23FB181B781B071B0FDBB29A42ECD172
S11390B4C046C046BD4606B0B0BDC046B8BC0000FC
S11390C480B582B000AF154B1800FFF721FA144B9A
S11390D41800FFF783FF134B1800FFF78DFF124BA3
S11390E41800FFF731FB114B1800FFF7EFFC104B8E
S11390F41800FFF73FFF3B1D1800FFF755FFFB1D4A
S11391041B781B071B0FDBB205229342F3D1094BD7
S1139114094A1A60C046BD4602B080BDC4BC000002
S113912400127A00D8BC0000D0BC0000E4BC0000EB
S1139134C0BC000080F8FF1F006CDC02F7B50027F8
S1139144324EC21C34689508B84214D02B000A333A
S11391540093EB1C0193002C0FD10C3001F0F0F8B8
S1139164431C08D080239B05036045608460002F62
S11391744AD1306021E00020FEBD802123684905E6
S11391848B423ED1A7686368002F0DD039688C46A2
S1139194802149058C4507D1796803338C4663449F
S11391A46360BB68A360EDE79D4208DC01999942C2
S11391B405DB80239B05236020000C30DCE7009949
S11391C48B4211D9802189052160032120008A431F
S11391D480210C305B1B82184905033B6560A26047
S11391E4116053609760C7E7002F0AD19B00C01A2F
S11391F401F0A6F80130BED080239B05236065608E
S1139204DAE72700A468A6E7B860D6E738F9FF1FB1
S113921410B5FFF793FF041E05D11722034902F08A
S11392241BFB02F006FB200010BDC046F0BC00008E
S113923470B5184C18492200002001F059F9802314
S113924480225B0000212000D20001F025F8134C99
S1139254134D22002900012001F04AF980238022C1
S11392645B0000212000D20001F016F80D4B1B68AE
S1139274022B0DDD0C4C29002200022001F038F9E8
S113928480238022002120005B00D20001F004F836
S113929470BDC0463CF9FF1F08BD000078F9FF1FEC
S11392A40ABD0000ECBC0000B4F9FF1FF0B5C9B05E
S11392B40A924F9A0700069200220B934E9B079240
S11392C418785A1C0C92002802D1079849B0F0BDB2
S11392D4252837D100260C9A11000D7801322B2D44
S11392E463D04BD8202D62D0232D62D02A2D49D1AE
S11392F4069B01CB0890002803DA40420890012021
S11393044640023115780C910693089B089ADB4376
S1139314DB171A40002313920D932E2D5CD10C9B62
S11393241D782A2D4AD00A2001332A00303AD1B2BA
S11393340C9309294BD80D9C1D78444312190D92A2
S11393440133F2E7079B0B9ADB179A4208DC03D13B
S11393540A9B079A934203D8079B013307935DE062
S1139364BB68013BBB60002B04DB3B685A1C3A60BE
S11393741870F1E7390001F025F8EDE72D2D11D02F
S1139384302D18D000230A2008932B00303BD9B287
S11393940C920929B9D80899157841435B180893A4
S11393A40132F2E701231E4396E70223FBE7042379
S11393B4F9E70823F7E780239B00F4E7069B04CB33
S11393C40D920C9A06931300557802330C930D9B5B
S11393D4002B25DB10231E436C2D09D10C9B1D7817
S11393E46C2D20D15D7860231E430C9B02330C93B7
S11393F4712D4DD01DDC682D51D06A2D00D1B2E001
S11394044C2D45D0572D1CDC412D00D1A6E300DDA5
S1139414AEE0002D56D10C9B013B0C930C9B4FE703
S113942400230D93D8E70C9B01330C9320231E4394
S1139434DEE7742D00D198E07A2D00D195E0782DE3
S113944440DC2800583820283CD802F0EAF9DB0133
S11394543B003B003B003B003B003B003B003B002C
S113946487033B00AE004D039600960096003B0034
S11394744D033B003B003B003B00F800EF02450278
S11394843B003B0019013B001A033B003B000B0269
S11394940C9B1D7860231E430C9B013309E00C9B39
S11394A41D78682D07D180235B001E430C9B5D78D7
S11394B402330C9304E00C9B01330C9380231E436E
S11394C4782D9FDD139B3200013B0D9301231A4039
S11394D412921E421DD12024B60500D51034079BD8
S11394E41C93DB171D930D9B013B62D5139B002B2F
S11394F400DC0123079A013BD3180793139B0899B3
S11395049A1E0023994202DD139901335B1A9B18B6
S11395140D93079B0B9A5E1CDB179A4204DC0CD157
S11395240A9B079A934208D9BB68013BBB60002B92
S113953460DB3B685A1C3A601D70129B0796002B33
S113954400D16BE701240025F3171F930D9B1E968E
S11395540793079B013B52D50D9B0D9ADB43DB1705
S113956413409B19FAE640231E430C9B1D7894E791
S113957402232A009A43452AA4D18023DB003343DF
S1139584F60601D406220D920721069A1E0007321C
S11395948A4303CA002306920022049205930023FB
S11395A43E903F911A0012939FE1069B20CB0693B1
S11395B488E70D931D9A0B9B934204DC0CD10A9B00
S11395C41C9A934208D9BB68013BBB60002B0CDB9B
S11395D43B685A1C3A601C7001201C9A1D9B002194
S11395E412184B411C921D937DE73900200000F0B2
S11395F4E9FEF1E73900280000F0E4FE9DE7079353
S11396041F9A0B9B934204DC0DD10A9B1E9A93422E
S113961409D9BB68013BBB60002B0BDB3B685A1CBC
S11396243A6020221A701E9A1F9B12196B411E92D3
S11396341F938EE73900202000F0C4FEF3E7069B55
S11396441A1D730607D5069B07991B681960C91769
S113965459600692E2E6B30604D5069B07991B6893
S11396641960F6E7F30504D5069B07991B6819707E
S1139674EFE7069B07991B683606F1D51980E8E7DE
S1139684069B04CB12923493002A01D18B4B129380
S1139694129800F027FE0690F30603D50D9A904223
S11396A400DD0692139B069A9B1A08933200012349
S11396B41A4013921E421AD12024B60500D5103440
S11396C401250026079B2493DB172593089B0D9300
S11396D40D9B013B36D5089B089ADB43DB171340EB
S11396E4079AD2180792089A013AD31A08930026C3
S11396F401240025079B2293DB172393069B9E4298
S11397043FDBDB43069ADB171340079AD31807930E
S1139714349B0693139B002B00D17FE60124002580
S1139724079B089E2093DB172193013E4BD5089B8E
S1139734089ADB43DB171340079AD3180793349B27
S113974406936BE60D93259A0B9B934204DC0CD190
S11397540A9B249A934208D9BB68013BBB60002B43
S11397640ADB3B685A1C3A601C70249A259B5219E4
S1139774734124922593ABE73900200000F022FEC4
S1139784F3E70B9B239A934204DC0ED10A9B229A9F
S113979493420AD9BB68013BBB60002B0DDB3B68D9
S11397A45A1C3A60129A925D1A70229A239B1219D7
S11397B46B41013622922393A0E7129B3900985DF2
S11397C400F000FEF1E70B9B219A934204DC0DD1D7
S11397D40A9B209A934209D9BB68013BBB60002BC6
S11397E40BDB3B685A1C3A6020221A70209A219B96
S11397F412196B412092219397E73900202000F03D
S1139804E1FDF3E7402332001A401E421DD0072233
S1139814069B0733934319000CC9049205930691DC
S1139824802332001A401E4215D06B461B8A0493CF
S113983400230593224A330700D5224A224B12936C
S1139844F10652D521490E404FE0069B059202CB06
S113985404910693E4E7F305ECD56B461B7C05926F
S11398640493E7E7402332001A401E4218D007222B
S1139874069B0733934319000CC90492059306917C
S1139884802332001A401E4210D06B461B8A049374
S1139894002305930A4A330700D50D4A0D4BCEE73E
S11398A4069B059202CB04910693E9E7F305F1D5EF
S11398B46B461B7C05920493ECE7C0460CBD000088
S11398C407BD000013BD000021BD0000FFFDFFFF24
S11398D416BD000032BD0000069B04CB0492002296
S11398E40693A84B0592A84A1293079B3B9238937C
S11398F4DB1701220A980B993993389B399CC01AB7
S1139904A1415242089009913C923D925520002273
S11399140D9B40A93A9350540132202AFBD1822250
S1139924D200164201D101223A926E2D00DD1DE1CE
S1139934472D00DDB5E12A005123413AD3400122E9
S113994419001140134200D0EDE10D91802332003F
S1139954DB001A4034921E4200D1F6E100233A930C
S11399643C9B002B01DD013B3A933D9B3A9A002B2F
S113997402DD013B9B183A930D9B3A9C3B981C19BE
S113998400F0B0FC139B1C1B231A129301233340D5
S113999435937E4B1E4200D104E2002301240025AA
S11399A41493DB1715933B9B5A1C3B921B7813931C
S11399B4002B00D0F9E1359B149C002B13D12025F6
S11399C4B60500D51035E317129E16941793013E7D
S11399D400D409E2129B129ADB43DB171340013AC9
S11399E4E418D31A1293349B002B00D07EE2E317BD
S11399F410940025012411933A9B013B3A93002BC4
S1139A0400DB92E201240025109B13931893DB17C7
S1139A1419930D9B5E1E002B00DDA5E20D9B0D9A90
S1139A24DB43DB171340139A9C1863E24023320090
S1139A341A401E4218D00722069B07339343190089
S1139A440CC9049205930691802332001A401E42E5
S1139A5410D06B461B8A0493002305934C4A3307A6
S1139A6400D54C4A0023EAE6069B059202CB0491F6
S1139A740693E9E7F305F1D56B461B7C0592049341
S1139A84ECE7402332001A401E4220D00722069BF2
S1139A940733934319000CC9049205930691802358
S1139AA432001A401E4218D06B461B8A04930023CA
S1139AB405931021330036480B40020012930E42E2
S1139AC400D112E7344B1E40002312930DE7069B8A
S1139AD4059202CB04910693E1E7F305E9D56B46BD
S1139AE41B7C05920493E4E773061CD50722069BAA
S1139AF40733934319000CC90E920F93069133064E
S1139B0418D56B4638229B5E0E93DB170F930F9B7D
S1139B14002B17DA0E980F99002342428B410492CA
S1139B2405931E4A9EE7069B04CB0E92D2170F920E
S1139B340693E4E7F305EAD56B4638229B181B78B1
S1139B445BB2E1E70E9A0F9B04920593144AB307A0
S1139B5488D40F4A730785D5124A83E710231E421B
S1139B6400D00AE51E43033B0D9306E528006F3835
S1139B74092800D9E7E001F044FED28BE6E6E6E6E4
S1139B8417E6E68B32BD000016BD0000010200009A
S1139B9407BD000019BD0000FFFDFFFF1BBD000051
S1139BA41DBD00001FBD000000230D93049B059AF6
S1139BB4134300D1CAE6049C059D059B049ADB0764
S1139BC452081A43059B2E925B082F93049A059B13
S1139BD492089B071A43059B30929B083193309853
S1139BE431992E9A2F9B12184B41190710090843D7
S1139BF41909289029912898299912184B41190672
S1139C04100A0843190A2A902B912A982B9912189E
S1139C144B411904100C0843190C2C902D912C98C9
S1139C242D9912184B410021369337913698379960
S1139C3412184B415907DB082793D0080023062246
S1139C4408432690A4185D41269827990A220023E4
S1139C5401F095FD241A8D412B0722091A432B097F
S1139C64329233930A22269B279C32983399C01844
S1139C74614128254243049B0D9C30339B1A36AA28
S1139C845219135523000133049005910D938DE764
S1139C9400220F2040A9049C059B1C4319D10D925A
S1139CA454E62800583811284DD801F0B2FDF1FFCC
S1139CB44C004C004C004C004C004C004C004C003C
S1139CC43C004C004C007DFF3C003C003C004C003C
S1139CD47DFF049C129B04401C5D059B54541B078C
S1139CE49C46049B01321D09059B1C0963462B43B6
S1139CF404930594CFE704980840303098540598A9
S1139D04013345070498C40805982543C0080495FD
S1139D1405900498059C2043EDD10D9316E6002389
S1139D24072140AAF5E73DAB03933CAB02933AAB5E
S1139D3401933BAB009328003300509C40AA3EA9F6
S1139D44A0470D9002E60023E7E73A9B0D9A9B1A7D
S1139D5400D410E6349B0EE6099BAB4203DC0CD121
S1139D64089BA34209D9BB68013BBB60002B14DBED
S1139D743B685A1C3A6020221A7001220023A4185A
S1139D845D41129B5A1E131BE6D5129B1299DB43A9
S1139D94DB170B40D21A129200E63900202000F09F
S1139DA411FBEAE700240025EBE7099B159A93428B
S1139DB404DC0DD1089B149A934209D9BB68013B76
S1139DC4BB60002B0BDB3B685A1C3A60139A1A7075
S1139DD4149A159B12196B4114921593E3E53900F7
S1139DE4139800F0EFFAF3E7099B179A934204DC03
S1139DF40CD1089B169A934208D9BB68013BBB60FB
S1139E04002B0CDB3B685A1C3A601D700120169A27
S1139E14179B002112184B4116921793D7E539006A
S1139E24280000F0CFFAF1E7139A40ABD05CE317B3
S1139E343C281ED03E2845D125001E003D9B013BF5
S1139E443D93002B1CDB099BB34203DC0CD1089B20
S1139E54AB4209D9BB68013BBB60002B2DDB3B68DB
S1139E645A1C3A6030221A7001230024ED1866410A
S1139E74E4E725001E003C9B013B3C93002B01DAE4
S1139E842C0030E0099BB34203DC0CD1089BAB42A9
S1139E9409D9BB68013BBB60002B09DB3B685A1C36
S1139EA43A6030221A7001230024ED186641E2E777
S1139EB43900302000F086FAF5E73900302000F04C
S1139EC481FAD1E7099A934203DB0BD1089BA3429D
S1139ED408D9BB68013BBB60002B22DB3B685A1CDE
S1139EE43A6018700134139B013313930D9B139A36
S1139EF4934299DC359B002B0FD001250026E317F0
S1139F041B93129B1A940D930D9B013B4CD5129BEE
S1139F14129ADB43DB171340E418079B1B19FFF762
S1139F241DFA390000F04EFADCE7099B119A9342BA
S1139F3404DC0DD1089B109A934209D9BB68013BF8
S1139F44BB60002B0BDB3B685A1C3A6030221A704E
S1139F54109A119B12196B41109211934CE539001C
S1139F64302000F02FFAF3E7099B199A934204DC9A
S1139F740ED1089B189A93420AD9BB6840AA013BA4
S1139F84B05CBB60002B0BDB3B685A1C3A60187056
S1139F94189A199B12196B4118921993330039E5D5
S1139FA4390000F00FFAF3E70D931B9A099B9342CF
S1139FB404DC0DD1089B1A9A934209D9BB68013B6E
S1139FC4BB60002B0BDB3B685A1C3A6020221A70DE
S1139FD41A9A1B9B521973411A921B9394E73900E2
S1139FE4202000F0EFF9F3E70EB430B594B017ABCA
S1139FF420CB04003C22002105A8049301F035FB86
S113A0040A2301220893104B009507930F4B5242E5
S113A0140293049B05A801930B4B0594FFF746F99F
S113A024079B0400013B0793002B08DB0022059BDC
S113A0341A70200014B030BC08BC03B0184705A93A
S113A044002000F0BFF9F4E7FFFFFF7FF3B6000040
S113A054F0B507000C0015001E0095B0002803D1CC
S113A064002925D1013404AF3C22002105A801F0C4
S113A074FCFA0A23621E002408930F4B00950793ED
S113A0840E4B0196029305A823000597FFF70EF9DA
S113A094079B0500013B0793A34204DB059B1C704B
S113A0A4280015B0F0BD200005A900F08BF9F7E7EE
S113A0B401256D42F4E7C046FFFFFF7FF3B60000BD
S113A0C40FB473B506AB40CB01213200684601934B
S113A0D4FFF7BEFF041E14DD451C2800FFF72EF80D
S113A0E4009000280DD032002900019BFFF7B0FF37
S113A0F4064B22000099186D01F0AEFB009801F0A4
S113A104B8FA200076BC08BC04B018473CF9FF1F19
S113A114094BC35C9A0605D53038884201DB01201B
S113A124404270471A0701D55738F6E73738DB063B
S113A134F3D401204042F0E7C3BD0000F0B50300AE
S113A1441400012685B02E4F01900391190008785C
S113A15401331A0000281CD03D1880352D7835426F
S113A164F4D1302815D11878202506008A1CAE4372
S113A174582E09D110262500B5433FD13400587810
S113A184CA1C27002C0009E00125002CF9D108245D
S113A194F7E70A27002C01D0270000240026350005
S113A1A4009202963900FFF7B3FF002811DA002C5D
S113A1B402D0009B013B0193039B019A1A60029B0A
S113A1C4002B18D0222201200E4B40421A6005B005
S113A1D4F0BD7E437D438619330C5D198023B6B2EA
S113A1E45B029D4201D301230293009B012418784E
S113A1F401330093D6E728043043E8E70125C0E798
S113A20443BD000030F9FF1FF0B507000E00010044
S113A21401201E4B85B0009201930D002B7801316F
S113A224002B22D0019CE41880342478A44662468E
S113A23404400242F1D12B2B19D02D2B02D18024BE
S113A2440D00A4002800009A03A9FFF777FF002E4D
S113A25404D0039BAB4200D13B003360002C0ED0EE
S113A264002806DB404205B0F0BD1C00EAE70D00FF
S113A274E8E722228020064B00061A60F3E7002850
S113A284F1DA2222024B03481A60ECE743BD0000D2
S113A29430F9FF1FFFFFFF7FF0B5C56804000120FC
S113A2A4AE070CD080208000824213D08020C000EE
S113A2B4824205D08020400082420BD0FF38F0BD9A
S113A2C42100012324311543002021612160E3612D
S113A2D4E560F4E7024F5E1E0120BE42F3D9EEE7C7
S113A2E4FEFFFF000300032110B51A000B4219D12D
S113A2F4114C1368114959189943214219D0DCB2FD
S113A304511C002C0BD0FF242402911C234206D0A0
S113A314FF2109040B40591E8B41D318D91C013069
S113A324081A05E001335C1E2478002CDDD1101AD0
S113A33410BD0432DDE7C04680808080FFFEFEFE4F
S113A34470B50D4D04002B68002B01D10B4B2B6011
S113A35403232E6803349C433419200000F04EFA7E
S113A364002802D12C60300070BD0C220126044B5D
S113A37476421A60F7E7C04634F9FF1FF4F9FF1F69
S113A38430F9FF1F2022C36810B59343C360826968
S113A394836A04009A420CD000F0E4F8E268074BA4
S113A3A41A4010231343E360A36AA3612369E3629D
S113A3B42360E368024A1340E36010BDEFCFFFFF5C
S113A3C4BFBFFFFFF8B5474ACB6805001A400C002D
S113A3D4CA609B0602D50800FFF7D4FFA268E668AA
S113A3E4531C0FDAB3050DD402235B429B1AA360FA
S113A3F490235B023343E36023685A1C22601D707C
S113A404E8B20AE0384A3240022A07D00023A360A3
S113A41480333343E36001204042F8BD8021334B51
S113A424090233408B420AD10021200000F04AF98A
S113A434E3689B0602D52000FFF7A4FFE668902397
S113A444F0225B0233431201E360164210D18027E9
S113A45460697F0001F0F4F93800FEF7D9FE942313
S113A464E2685B0233431A4320612060E761E260DF
S113A47490210901226826690B4216D0E36A9A42A4
S113A48400D91300991BB34208D1731CE3622360FF
S113A494E3695A1EA26023633570B1E722003000D9
S113A4A400F08EF80028F0D0B5E7511CE8B2216022
S113A4B41070E26A21688A4200D91100E269891B9A
S113A4C422635B0503D40A2801D08A4298DC002362
S113A4D422003000E6622660A36000F071F80028D0
S113A4E499D18DE7FFFFF7FF8A10000010A0000048
S113A4F4F7B50D0001901000140000F095F82B78C6
S113A504722B1CD0772B1DD0612B26D1144A593BB6
S113A5140220691C032784460426012508782B2875
S113A52413D0622816D0E260019A62611B0704D535
S113A53402220021200000F0C5F82000FEBD002303
S113A5440122E5E704230222E2E760463A43034397
S113A5540131E3E732432B43FAE70024EDE7C04635
S113A5640280000070B50400134AE36805691A40C8
S113A5740168C06AE26082221A40022A02D00120E1
S113A584404270BDDB030CD5814200D201008D42F0
S113A59409D10023094AA360E368E56213402560F6
S113A5A4E3600020EDE722002800491B00F008F8CE
S113A5B40028EED0E3E7C046FFFFF7FFFFFFFEFFEE
S113A5C4F7B5D5680F00140056690190EB0205D560
S113A5D4102330001D4301F030F9A061104B1D42DB
S113A5E40FD03000A16901F031F9002806DA802384
S113A5F40120E26840421343E3600FE0094B1D402D
S113A604E5603A003000019901F026F94300A2699B
S113A6145B08FB1AD318A3610028E8D1FEBDC04629
S113A62410000200EFFFFDFFF0B5C56804004769A0
S113A634066989B0AB0720D02B0716D400F022F8A2
S113A644380001F0F7F82B0502D5300001F011F8B9
S113A6540B4BAD0DAD059D4207D120226846216AFE
S113A66401F0F7F8684601F044F83C220021200088
S113A67400F0FBFF002009B0F0BD01204042FAE7DE
S113A684000080ADF8B5002812D000F0C3F805002E
S113A6942800F8BD38006043084BC01800F0BAF82D
S113A6A4002801D001256D420134A642F2DCEFE713
S113A6B4034B040005003C271E68F6E73CF9FF1F22
S113A6C4ECBC0000F7B54369C6680193364B04003B
S113A6D40D0000921E420BD0019801F0B1F8071E40
S113A6E406D1009B012B06D0022B2DD0002B06D0C3
S113A6F402273800FEBD200000F05AF82D18002D62
S113A704F6DBB30404D52368E26A9A4200D2E36216
S113A714A369AB420EDCE16A22688A4200D20A00D1
S113A7242169D0180091401AA84203DB206B191840
S113A734A94228DC20231E430023A562A36063608E
S113A7441A4B1E40E660D4E7019801F076F8E268FB
S113A754002804DA802313430127E360C9E7E16A8C
S113A7642368994200D90B00A1695B1821695B1A1B
S113A774920603D5A26A934200DA1300834200DAF4
S113A7840300ED18BBE7EB1AB50701D5181AA0604E
S113A794F00703D50099521A9A1A6260009AD118E4
S113A7A4202321609E43CBE703001000BFCFF7FFB3
S113A7B4C16802008B0705D1212201200E4B4042BF
S113A7C41A60704720230B4009030AD5002B02D0DA
S113A7D4806A0138F5E793690068C0181369C01AE0
S113A7E4F7E7002B01D0806AEBE70368816900690D
S113A7F45B18181AE5E7C04630F9FF1F0300044844
S113A804002803D000228342524110007047C046FE
S113A814F4FBFF1FC36870B503221E000400164036
S113A824134211D09B0611D5856AFFF7ABFDE3688B
S113A834094A20001340E360FFF794FE0022060057
S113A84429002000FFF73EFF300070BD83690568CE
S113A854ED180369ED1AEAE7FFCFFFFF80B584B072
S113A86400AFF860B9607A6000231800BD4604B0F4
S113A87480BD80B586B000AFF860B9603B60FB1D55
S113A8841A7000237B6100237B611FE0BB681B6893
S113A89401337F2B0AD9BB681B681A00FB681100BB
S113A8A41800FDF7CFF9BB6800221A60BB681B6867
S113A8B41A00FB689B18FA1D12781A70BB681B688F
S113A8C45A1CBB681A607B6901337B617A693B68F3
S113A8D49A42DBDBC046C046BD4606B080BD0FB419
S113A8E480B582B000AF00237B601423FB183B6067
S113A8F43A683B6911001800FDF7D2F903007B6044
S113A9047B681800BD4602B080BC08BC04B018477C
S113A91480B584B000AF786039600023FB600B23FA
S113A924FB1800221A7027E07B681B685A1C7B689A
S113A9341A607B681A680A217B1812781A707B18CB
S113A9441B782F2B0FD97B181B78392B0BD8FA685B
S113A95413009B009B185B001A007B181B78D31808
S113A964303BFB6008E07B681B685A1E7B681A60F6
S113A9740B23FB1801221A700B23FB181B78002BE2
S113A984D2D0FB681800BD4604B080BD80B588B041
S113A99400AFF860B9607A60FB681B68FB6106234A
S113A9A4BB6117217B1800221A70FB690133FB6118
S113A9B4FB691B782E2B2ED10023BB617B1800224C
S113A9C41A7022E0FB690133FB6116217B18FA69D2
S113A9D412781A707B181B782F2B0FD97B181B78CD
S113A9E4392B0BD8BA6913009B009B185B001A001F
S113A9F47B181B78D318303BBB6106E0FB69013B31
S113AA04FB611723FB1801221A701723FB181B7808
S113AA14002BD7D002E0FB69013BFB61FB68FA69B8
S113AA241A60BB691800BD4608B080BD80B584B007
S113AA3400AF0200FB1D1A700023FB60FB1D1B7892
S113AA446F2B0BD0FB1D1B78622B07D0FB1D1B78CF
S113AA54702B03D0FB1D1B78752B01D10123FB60E4
S113AA64FB681800BD4604B080BD80B584B000AF57
S113AA740200FB1D1A700023FB60FB1D1B78642B72
S113AA8403D0FB1D1B78692B01D10123FB60FB68F8
S113AA941800BD4604B080BD90B585B000AFF86021
S113AAA4B9607A601A00FB1C1A70BA687B68D31AFE
S113AAB4F96AB86A7C6A2022A04708E03B6A5A1EF5
S113AAC43A621A78F96AB86A7C6A0123A0473B6A35
S113AAD41B78002BF2D1C046C046BD4605B090BDDC
S113AAE490B585B000AFF860B9607A601A00FB1CB9
S113AAF41A70BA687B68D31AF96AB86A7C6A202225
S113AB04A04708E03B6A5A1E3A621A78F96AB86A9E
S113AB147C6A0123A0473B6A1B78002BF2D1C04610
S113AB24C046BD4605B090BD80B584B000AF0200F8
S113AB34FB1D1A700023FB60FB1D1B78662B03D0DE
S113AB44FB1D1B78462B01D10123FB60FB68180015
S113AB54BD4604B080BD80B584B000AF0200FB1DC7
S113AB641A700023FB60FB1D1B78782B03D0FB1D9C
S113AB741B78582B01D10123FB60FB681800BD46E8
S113AB8404B080BD80B584B000AF78607B681B6876
S113AB94FB60FB680133FB600B217B18FA681278B5
S113ABA41A700A00BB181B78682BF2D0BB181B78E8
S113ABB46C2BEED0FB68013BFB607B68FA681A607F
S113ABC4C046BD4604B080BD80B584B000AF020069
S113ABD4FB1D1A70FB1D1B786F2B04D10F23FB186C
S113ABE408221A7015E0FB1D1B78622B04D10F2375
S113ABF4FB1802221A700CE0FB1D1B78702B04D185
S113AC040F23FB1810221A7003E00F23FB180A22E7
S113AC141A700F23FB181B781800BD4604B080BDBE
S113AC2480B58EB000AFF860B9607A603B600023F1
S113AC34FB62FB68BB62BB6A5A1CBA6200221A70CC
S113AC4400237B6000237B6200233B620023FB61BF
S113AC5400237B630023BB6100233B6300237B61EC
S113AC64BB681B687B637B6B002B31D1BB6A3022CE
S113AC741A70FB6A0133FB62FB6A2DE03968786B56
S113AC8400F043FD0300BB61BB693A6853437A6B2C
S113AC94D31A3B633B6B092B03D83B6B30333B63C5
S113ACA40BE04023FB181B78002B01D0412300E068
S113ACB461233A6B9B180A3B3B63BB697B63BB6AA6
S113ACC45A1CBA623A6BD2B21A70FB6A0133FB6241
S113ACD47B6B002BD2D1FB6A1800BD460EB080BD3D
S113ACE480B582B000AF786039603B681B68191D79
S113ACF43A6811601A687B681A60C046BD4602B09F
S113AD0480BD80B582B000AF786039603B681B6851
S113AD14191D3A6811601A687B681A60C046BD46FA
S113AD2402B080BD80B582B000AF786039603B6802
S113AD341B68191D3A6811601A687B681A60C0465A
S113AD44BD4602B080BD80B584B000AF78600023F6
S113AD54FB607B681800FFF7C5FA0300FB60FB681F
S113AD641800BD4604B080BDF0B5A1B004AFF860CE
S113AD74B9607A603B6000237B6600233B66002352
S113AD843B620023FB650023BB61FB68BB64BB6CB3
S113AD941B78002B00D14CE1BA6C5B217B18127830
S113ADA41A700A00BB181B78252B0BD0BB181A7811
S113ADB42023F91878683C680123A047BB6C01334D
S113ADC4BB6435E16B26BB1901221A7008243A19B5
S113ADD448257B1911001800FFF79AFD03007B65D1
S113ADE439197B1900221800FFF7D0FD03003B65D5
S113ADF47B191800FFF7C6FEBB6C0133BB64BA6C45
S113AE045B217B1812781A707B181B781800FFF7E3
S113AE142CFE0300012B26D13A191C243B191100E2
S113AE241800FFF75DFF391924243819BB191B785E
S113AE3400930A230122FFF7F3FE03003B663A1949
S113AE443B6ED3187B663A6E796D2023FB1803930B
S113AE547B6802933B6801937B6E0093002300207C
S113AE64FFF71AFEE1E05B23FB181B781800FFF7D9
S113AE745BFE0300012B06D1BB680733072293430F
S113AE840833BB60D1E05B243B191B781800FFF73F
S113AE9462FE0300012B32D13B191B78782B03D1BA
S113AEA46B23FB1800221A700823FA1818243B1980
S113AEB411001800FFF725FF3919242438196B25CC
S113AEC47B191B78009310230022FFF7A9FE0300CB
S113AED43B663A193B6ED3187B663A6E7B19187835
S113AEE4796D2023FB1803937B6802933B680193D9
S113AEF47B6E009303000020FFF7F2FD95E05B24D2
S113AF043B191B781800FFF791FD0300012B44D172
S113AF143B191B78702B0DD1BB681A1DBA601B68D2
S113AF247B611423F9181823FB180422180000F079
S113AF3498FB07E00823FA181823FB1811001800DB
S113AF44FFF7F0FE5B23FB181B781800FFF73CFEA9
S113AF540300FB65FA6D1823F918242438196B23AC
S113AF64FB181B78009313000022FFF759FE03001B
S113AF743B663A193B6ED3187B663A6E796D20238F
S113AF84FB1803937B6802933B6801937B6E0093E5
S113AF9400230020FFF780FD47E05B23FB181B78A8
S113AFA4632B0DD1BB681A1DBA601B68FB64FB6C70
S113AFB4DAB22023F91878683C680123A04734E006
S113AFC45B23FB181B78732B26D1BB681A1DBA604C
S113AFD41B68FB66FB6E002B27D0FB6E1800FFF783
S113AFE4B2FE03003B667A6D3B6ED31A2022B91875
S113AFF478683C682022A04709E0FB6E5A1CFA6674
S113B0041A782023F91878683C680123A047FB6E5A
S113B0141B78002BF1D108E05B23FB181A7820235A
S113B024F91878683C680123A047BB6C0133BB64FE
S113B034ADE6C0463B6A1800BD461DB0F0BD80B500
S113B04484B000AF0200FB1D1A700023FB60FB1DDB
S113B0541B785BB2803302D10123FB6005E0FB1D46
S113B0641B785BB21800FCF753FEFB681800BD465E
S113B07404B080BD80B582B000AF7860B8235A00B4
S113B0847B680021180000F0F0FA7A68B6235B00AC
S113B09401214942D150C046BD4602B080BD90B59D
S113B0A485B000AF786039600023FB600B217B1806
S113B0B403221A707A68B6235B00D2587B181B7873
S113B0C49A4201DB002336E07A68B6235B00D35846
S113B0D4591C7A68B6235B00D1507A68B6235B00A6
S113B0E4D3585B2253437A68D3185B220021180097
S113B0F400F0BBFA7A68B6235B00D3585B2253434F
S113B1047A68D4183B681800FFF7ECF802003B682F
S113B1141900200000F0A5FA7A68B6235B00D3581E
S113B1245B2253437A68D3181800FFF7DBF8030053
S113B134FB60FB68DBB21800BD4605B090BDB0B53A
S113B14484B000AF786039600023BB607A68B623AA
S113B1545B00D358002B07DA3B685B2200211800FC
S113B16400F083FA002359E03B685B2200211800B5
S113B17400F07BFA7C687B681800FFF7B3F80200E0
S113B1843B682100180000F06CFA7B685B22002104
S113B194180000F06AFA3B681800FFF7A3F80300EC
S113B1A4BB600023FB6027E0FB685B2253437A689F
S113B1B4D418FB6801335B2253437A68D518FB68BF
S113B1C401335B2253437A68D3181800FFF78AF8D3
S113B1D403001A002900200000F043FAFB6801333D
S113B1E45B2253437A68D3185B220021180000F0D1
S113B1F43CFAFB680133FB607A68B6235B00D358DE
S113B204FA689A42D0DB7A68B6235B00D358591E95
S113B2147A68B6235B00D150BB68DBB21800BD4624
S113B22404B0B0BD80B584B000AF0200FB1D1A7039
S113B234BB1D0A1C1A700C217B18FA1D12781A7093
S113B2447B18BA1D12785A707B1800229A707B18E6
S113B254102200211800FEF7D7FF0300DBB2180008
S113B264BD4604B080BD80B584B000AF7860396059
S113B2740F217B1800221A703B681B78533B5A1E1B
S113B2849341DAB27B181A707B181B781800BD46F8
S113B29404B080BD80B584B000AF786039600F23FA
S113B2A4FB1800221A703B6801331B78303BDBB275
S113B2B41800FCF73DFF03001A007B681A707B68D2
S113B2C41B780A2B01D1022200E000220F217B18F3
S113B2D41A707B181B781800BD4604B080BD90B565
S113B2E485B000AF786039600F23FB1800221A7010
S113B2F43B6802331A783B6803331B781900100047
S113B304FFF790FF03001A007B685A707B685B7830
S113B3141C003B681800FEF7E5FF0300043B5B08D0
S113B3249C4203D87B685B78022B03D80F23FB1859
S113B33403221A700F23FB181B781800BD4605B0AE
S113B34490BDB0B586B000AF78601723FB18002217
S113B3541A700F23FB1800221A700E243B190022C2
S113B3641A707B680233BB60BB681800FEF7BAFF2F
S113B37402007B689B181D78BB681800FEF7B2FFB7
S113B384030001337A68D3181B783C191900280088
S113B394FFF748FF0300237000233B6116E03B6979
S113B3A4BA68D31818783B690133BA68D3181B7880
S113B3B41900FFF737FF030019001722BB18BA1846
S113B3C412788A181A703B6902333B61BB6818000F
S113B3D4FEF788FF03009A1E3B699A42DFD80F21C7
S113B3E47B181722BA181278D2431A707A180E23CB
S113B3F4FB1812781B789A4201D1002300E004233D
S113B4041800BD4606B0B0BD90B587B000AF7860F3
S113B41439600C23FB18180009231A00002100F0DA
S113B42424F91723FB1800221A707B681B78012B5C
S113B43407D07B681B78022B01D1062302E0082382
S113B44400E0042317203A1813703B68191D3B18B5
S113B4541A780C243B19180000F003F93B19102244
S113B46400211800FEF7D0FE03001A007B685A601E
S113B474C046BD4607B090BD90B585B000AF7860B6
S113B48439600F23FB1800221A700E23FB180022C4
S113B4941A707B681B78012B07D07B681B78022BFE
S113B4A401D1062302E0082300E004230E243A1900
S113B4B413703B681800FEF715FF0300DAB221008D
S113B4C47B181B78D31ADAB20F243B19063A1A7084
S113B4D47B68083318007B181B7804331A003B6814
S113B4E499183B191B781A0000F0BBF8C046BD46F6
S113B4F405B090BD80B584B000AF0200FB1D1A7086
S113B5040823FB181800FCF771FF0B23FB181B78A6
S113B5141B071B0FDBB2052B17D01BDC032B0FD02F
S113B52418DC012B02D0022B05D013E0FDF7B6F88A
S113B5340300FB6011E0FDF76FF90300FB600CE00E
S113B544FDF770FA0300FB6007E0FDF787FB0300D7
S113B554FB6002E00023FB60C0460A23FB181B784F
S113B5641B071B0FDBB201331900F86800F0CDF898
S113B5740300FB60FB1D1B78002B0CD10823FB1874
S113B5841B781B071B0FDBB201331900F86800F0AA
S113B594BCF80300FB60FB681800BD4604B080BD22
S113B5A480B500AFC046BD4680BD80B586B000AF4F
S113B5B4F860B9607A60FB68002BFCD0BB68002B90
S113B5C4FCD07B68002BFCD0FB687B617B691B6827
S113B5D43B613B69002BFCD07B68BA6879693869A4
S113B5E4FDF7A6FC03001800BD4606B080BD80B577
S113B5F484B000AFF860B9607A607A68B968FB68AF
S113B6041800FFF7D2FF03001800BD4604B080BD44
S113B61480B586B000AFF860B9607A60FB68002B2F
S113B624FCD0BB68002BFCD07B68002BFCD0FB68EF
S113B6347B617B697A68B9681800FDF743FC0300F1
S113B6441800BD4606B080BD80B500AFFDF738FDD7
S113B654C046BD4680BD10B5FDF7EAFDFCF760FCAD
S113B66410BD10B500F0A2F810BD10B500F0B4F888
S113B67410BD10B5002811D080210C384905016093
S113B6848268002A0AD013688B4207D1436854683D
S113B69403331B19436093688360F1E710BD0A0CFC
S113B6A470B51400030C89B280B25C4342434B432B
S113B6B44843150C190C49199BB292B209199B18E9
S113B6C4040CE418230C5B18002B0DD180B2240461
S113B6D404432000FDF732FD051E03D0220000219F
S113B6E4FFF7C3FF280070BD01246442F1E7002082
S113B6F4704710B50400FEF7F5FD0100200000F0CA
S113B704A2F810BD03000B4321D4002931D0012237
S113B714D207030901E0090112099942FBD943083C
S113B72401E0490052089942FBD900E04908401A53
S113B73407D35241FAD301461046704749084018CA
S113B744F7D29218FAD34018014610467047CB0F2B
S113B75400D04942021000D54042534008B5FFF7D7
S113B764D4FF0CBC521000D34042002A00D54942F5
S113B7741847F446002000F001F86047704710B5FC
S113B78443435143C918040C130C5C43091992B282
S113B794040C544380B2434350432204240C8018C1
S113B7A461411A041B0C8018594110BD8446830757
S113B7B408D18B0706D1131F04D304C904C0043B66
S113B7C4FBD21A1D524205D0891A801A8B5C835409
S113B7D40132FBD1604670478446043A09D3830797
S113B7E407D109060B0A19430B0C1943043A02C086
S113B7F4FCD2043203D001700130013AFBD160461B
S113B80470478C4671460139095C49008E4461468F
S113B81470478C46411E7144095E49008E4461465A
S113B82470478C46411E7144095A49008E4461464E
S113B8347047FEE7012040427047012040427047B0
S113B8440120404270470120404270470120404299
S113B85470470120404270471000704741535345DC
S113B8645254204552524F522022202573200A005C
S113B87441424344454647480D0A00000000000085
S113B8845B4552524F525D20456E71756575652056
S113B89442756666657220532D7265630D0A000055
S113B8A425640D0A000000005B44454255475D20B1
S113B8B44C696E652025643A202C206572723A2006
S113B8C425732C2025730D0A000000005B45525299
S113B8D44F525D20446571756575652042756666D1
S113B8E4657220532D7265630D0A00004F4B0000EE
S113B8F453544152545F434841525F494E56414C5C
S113B90449440000545950455F494E56414C4944FA
S113B9140000000042595445434F554E545F494E6C
S113B92456414C4944000000434845434B53554D4C
S113B9345F494E56414C494400000000434841527B
S113B9445F444154415F494E56414C494400000010
S113B954554E4B4E4F574E00434841525F44415459
S113B964415F494E56414C494420617420706F73C1
S113B974203D205B25645D2C2076616C7565203D3B
S113B984205B25635D0A00005B44454255475D2006
S113B99441646472657373206973202564626974F5
S113B9A42C2056616C7565203D205B307825303839
S113B9B4585D0A005B44454255475D204461746107
S113B9C43A20000020256325630000000A000000DB
S113B9D466736C5F636C6F636B2E683A373534201F
S113B9E43A20636F6E6669670000000066736C5FDB
S113B9F4636C6F636B2E633A3636203A20675F7844
S113BA0474616C30467265710000000066736C5F8B
S113BA14636C6F636B2E633A323738203A20636F5A
S113BA246E6669670000000066736C5F636C6F6325
S113BA346B2E633A333834203A20675F7874616C30
S113BA44304672657100000066736C5F636C6F63EB
S113BA546B2E633A343438203A20636F6E66696718
S113BA640000000066736C5F636C6F636B2E633A53
S113BA74353835203A20636F6E666967000000002C
S113BA8466736C5F636C6F636B2E633A3734382070
S113BA943A20636F6E6669670000000066736C5F2A
S113BAA46C70756172742E633A31303835203A20E3
S113BAB44E554C4C20213D2064617461000000000B
S113BAC466736C5F616461707465725F6C707561D8
S113BAD472742E633A373933203A204E554C4C2035
S113BAE4213D2068616E646C6500000066736C5FC0
S113BAF4616461707465725F6C70756172742E63D5
S113BB043A373934203A204E554C4C20213D206498
S113BB146174610066736C5F616461707465725F03
S113BB246C70756172742E633A373935203A206C1F
S113BB34656E677468203E2030550000433A5C55B6
S113BB44736572735C486965705C446F63756D6595
S113BB546E74735C4D43555870726573736F4944C6
S113BB64455F31312E31302E305F333134385C77D8
S113BB746F726B73706163655C4D4B4531365A3437
S113BB845F50726F6A6563745F554152545C6472AA
S113BB9469766572732F66736C5F636C6F636B2E67
S113BBA4683A373334203A20636F6E66696700005D
S113BBB4433A5C55736572735C486965705C446FA1
S113BBC463756D656E74735C4D435558707265731B
S113BBD4736F4944455F31312E31302E305F333138
S113BBE434385C776F726B73706163655C4D4B457D
S113BBF431365A345F50726F6A6563745F554152CB
S113BC04545C647269766572732F66736C5F636CDB
S113BC146F636B2E683A373534203A20636F6E664F
S113BC24696700FF52810000568100005A810000B8
S113BC345E81000062810000668100006A81000068
S113BC446E8100007281000076810000A6810000EC
S113BC54AA810000AE810000B2810000B681000018
S113BC64BA8100007E8400008A8400008A84000073
S113BC7496840000A0840000AA840000B484000018
S113BC84BE840000CA840000D6840000E28400005C
S113BC94EE840000F684000080841E0000127A0002
S113BCA4006CDC02006CDC0200A0064000B006401C
S113BCB400C006400100000002010000010000056C
S113BCC400127A00000000000501040001000000D5
S113BCD40201000001000000010000000000000057
S113BCE40102000000000000030000002A2A2A20A8
S113BCF45F437379735F616C6C6F63206661696C15
S113BD0465640A0072007700286E756C6C29003033
S113BD14580030780030002D002B002000303132E0
S113BD24333435363738394142434445460030319B
S113BD3432333435363738396162636465660000FA
S113BD4400000000000000000000000000000000EB
S113BD5400000000000000000000000000000000DB
S113BD6400000000000000000000000000000000CB
S113BD7400000000000000000000000000000000BB
S113BD8400000000000000000000000000000000AB
S113BD94000000000000000000000000000000009B
S113BDA4000000000000000000000000000000008B
S113BDB4000000000000000000000000000000403B
S113BDC44040404040404040414141414140404066
S113BDD44040404040404040404040404040400596
S113BDE4020202020202020202020202020202200D
S113BDF4202020202020202020020202020202020D
S113BE04909090909090101010101010101010102A
S113BE14101010101010101010100202020202026E
S113BE24888888888888080808080808080808088A
S113BE340808080808080808080802020202400062
S113BE4400000000000000000000000000000000EA
S113BE5400000000000000000000000000000000DA
S113BE6400000000000000000000000000000000CA
S113BE7400000000000000000000000000000000BA
S113BE8400000000000000000000000000000000AA
S113BE94000000000000000000000000000000009A
S113BEA4000000000000000000000000000000008A
S113BEB4000000000000000000000000000000FF7B
S107BEC4006CDC022C
S90378D9AB
